:1000000012C01FC01EC01DC01CC01BC01AC019C01A
:1000100018C017C016C015C014C013C012C011C03C
:1000200010C00FC00EC011241FBECFEDCDBF20E009
:10003000A0E6B0E001C01D92AD3BB207E1F7DAD116
:10004000E6C2DECF5D9BFECF8CB908955F9BFECFED
:100050008CB108958FB980E48EB98BE18DB9769B10
:10006000FDCF8FB108951F93CF93DF93182FC49ABC
:100070008FEFF0DFC4988FEFEDDF812F8064EADF30
:10008000CBE6D0E08B81E6DF8A81E4DF8981E2DFA5
:100090008881E0DF112331F0183011F487E803C0C4
:1000A00081E001C085E9D6DFCAE08FEFD3DF882386
:1000B00014F4C150D1F7DF91CF911F9108950F93A0
:1000C0001F93CF93DF93C49ACAE08FEFC3DFC15071
:1000D000E1F7C498C8E5D2E08FEFBCDF2197E1F7E4
:1000E000CBE6D0E0188219821A821B8280E0BBDF47
:1000F0008AEA888381E0898388E0B5DF8FEFAADF11
:100100008FEFA8DF8FEFA6DF8FEFA4DF18821982B1
:10011000CAEF0BE610E0D0E4F801138287E3A3DF17
:100120008FEC97E00197F1F700C00000F801D3834E
:1001300089E299DF882311F0C15071F710926E00A7
:100140008AE391DF8FEF86DF8FEF84DF8FEF82DF2F
:100150008FEF80DFC49A8FEF7DDFDF91CF911F910A
:100160000F910895CF93CFEF8FEF74DF8E3F11F093
:10017000C150D1F7CF91089582E175DFF3DF10927E
:100180006100109260000895CF938CE06CDFCAE0AC
:100190008FEF60DFC150E1F7CF910895809160004B
:1001A000909161009C012F5F3F4F3093610020933D
:1001B00060008115924059F48FEF4CDF8FEF4ADFDA
:1001C000D1DF81E090E090936100809360008FEF39
:1001D00041DF0895CF93DF93EC01E0DF2197E9F74A
:1001E000DF91CF91089580916B0090916C00A09168
:1001F0006D00B0916E00072E79E0880F991FAA1F3D
:10020000BB1F7A95D1F7702D80936B0090936C0093
:10021000A0936D00B0936E0008958091B500409159
:100220006B0050916C0060916D0070916E00440FF6
:10023000551F661F771F8695D1F740936B0050932B
:100240006C0060936D0070936E000895CF93DF9300
:100250008FE090E0BFDFCBE6D0E088839FDF89832B
:100260001A821B8280916B0090916C00A0916D00AE
:10027000B0916E000297A109B10980936B00909331
:100280006C00A0936D00B0936E00C7DF20916F00EB
:100290003091700080916B0090916C00A0916D0086
:1002A000B0916E00820F931FA11DB11D80936B0052
:1002B00090936C00A0936D00B0936E00DF91CF918E
:1002C00008951F93CF93DF93182FEBE6F0E0A2E79A
:1002D000B0E08C91808311968C918183128213827D
:1002E00082DF4ADF5BDFC82F811103C04DDF80E072
:1002F00023C0D1E08AE090E06DDF50DFC53EA9F079
:10030000982F9F7191F4D1130FC0A0DF6CDF46DFEF
:10031000C6E6D0E0888342DF898340DF8A833EDF00
:100320008B8332DF81E008C0DF5F85E190E052DF40
:10033000C82F8111DFCFDACFDF91CF911F910895C0
:100340000F931F93CF93DF93CBE6D0E018821982EF
:100350001A821B8211DF87EC91E03CDF0BEB10E08F
:10036000F80180831BDFF80181830EDFF8018081B3
:1003700088838181898337DFFFDE10DF8BE090E0A7
:1003800029DF0CDF0BDF86958093B50007DFC82FD0
:1003900005DFD82F8091BB009091BC00C80FD91FFA
:1003A000D093BC00C093BB00F9DEF8DEF7DE84E03A
:1003B00090E010DFC2E7D0E08883F0DE898380918F
:1003C000720090917300880F991F2091BB003091AB
:1003D000BC00820F931F90937300809372008096ED
:1003E0009093700080936F00CFDEDF91CF911F91CB
:1003F0000F91089587ED87BB88E088BB84E081BBBF
:1004000082E082BB12B889E189B986E083B988E1CC
:100410008AB955DE1EBAE09AADB20F2EF8E14F2E22
:10042000F02D6894882482F86894992491F8712CAE
:10043000D72C612C512C6894BB24B7F8C12C0F2EFB
:10044000F6E62F2EF0E03F2EF02D39DE79DF8A2DF3
:1004500038DF813009F0D2C08FDE80916600909144
:100460006700A0916800B091690081309D41A105AD
:10047000B10518F0C72DDDE103C0F101C081D181C4
:100480006894EE24E7F80F2EFDE0FF2EF02D4AB819
:1004900081BA92BAFFEF20E782E0F150204080401D
:1004A000E1F700C0000086E082BB11BA9FEFE0E7F1
:1004B000F2E09150E040F040E1F700C0000080E33E
:1004C000C1DD80E2BFDDC2DDC1DD80E3BBDD80E2F6
:1004D000B9DDBCDDBBDD40C085E5B4DD8E2DB2DD10
:1004E0008F2DB0DD80E2AEDDB1DDB0DD84E6AADDCA
:1004F00001381105C0F08D2DA5DD80E8A3DD86E46F
:10050000A1DDCB2DDC2D4ADE9DDD2197E1F780E2D8
:1005100099DD9CDD9BDD00581109C02FD12F90E49F
:10052000E90EF11C19C08D2F8DDD8C2F8BDD86E43B
:1005300089DD0C2F10E00115110541F0C62DD52DD8
:100540002DDE80DD2196C017D107D1F780E27ADD5C
:100550007DDD7CDDCD2DDD2D0C2F1D2F0115110531
:1005600009F0BACF1AB881BA92BA2FEF80E792E0B9
:10057000215080409040E1F700C0000086E082BB3F
:1005800011BAEFEFF0E722E0E150F0402040E1F750
:1005900000C00000B39BFECF80EC9DE5272DB399F2
:1005A00014C0283C11F02F5F20C081BA92BAB39BCF
:1005B000FECF8FEF99E6E8E181509040E040E1F70F
:1005C00000C00000B399FECF1BC0233330F0AA94C3
:1005D000A11016C0AA24A39413C0243018F48130AB
:1005E000910511F4A3940CC02D2DEFE1FEE4319799
:1005F000F1F700C00000019791F602C0AA24A3946D
:100600001CBAADBAE29AE19ABFDDC49A1ECFF89443
:02061000FFCF1A
:00000001FF
